{
  "_format": "hh-sol-artifact-1",
  "contractName": "TransferAll",
  "sourceName": "contracts/TransferAll.sol",
  "abi": [
    {
      "inputs": [
        {
          "internalType": "address",
          "name": "token",
          "type": "address"
        },
        {
          "internalType": "address",
          "name": "recipient",
          "type": "address"
        }
      ],
      "name": "transferAllTokens",
      "outputs": [],
      "stateMutability": "nonpayable",
      "type": "function"
    },
    {
      "inputs": [
        {
          "internalType": "address",
          "name": "recipient",
          "type": "address"
        }
      ],
      "name": "transferNativeCurrency",
      "outputs": [],
      "stateMutability": "payable",
      "type": "function"
    }
  ],
  "bytecode": "0x608060405234801561001057600080fd5b50610585806100206000396000f3fe6080604052600436106100295760003560e01c806322f679d51461002e5780633eccca1e1461004a575b600080fd5b610048600480360381019061004391906102a4565b610073565b005b34801561005657600080fd5b50610071600480360381019061006c91906102cd565b610100565b005b600047116100b6576040517f08c379a00000000000000000000000000000000000000000000000000000000081526004016100ad90610471565b60405180910390fd5b8073ffffffffffffffffffffffffffffffffffffffff166108fc479081150290604051600060405180830381858888f193505050501580156100fc573d6000803e3d6000fd5b5050565b60008273ffffffffffffffffffffffffffffffffffffffff166370a08231336040518263ffffffff1660e01b815260040161013b919061041f565b60206040518083038186803b15801561015357600080fd5b505afa158015610167573d6000803e3d6000fd5b505050506040513d601f19601f8201168201806040525081019061018b9190610332565b9050600081116101d0576040517f08c379a00000000000000000000000000000000000000000000000000000000081526004016101c790610491565b60405180910390fd5b8273ffffffffffffffffffffffffffffffffffffffff166323b872dd3384846040518463ffffffff1660e01b815260040161020d9392919061043a565b602060405180830381600087803b15801561022757600080fd5b505af115801561023b573d6000803e3d6000fd5b505050506040513d601f19601f8201168201806040525081019061025f9190610309565b50505050565b6000813590506102748161050a565b92915050565b60008151905061028981610521565b92915050565b60008151905061029e81610538565b92915050565b6000602082840312156102b657600080fd5b60006102c484828501610265565b91505092915050565b600080604083850312156102e057600080fd5b60006102ee85828601610265565b92505060206102ff85828601610265565b9150509250929050565b60006020828403121561031b57600080fd5b60006103298482850161027a565b91505092915050565b60006020828403121561034457600080fd5b60006103528482850161028f565b91505092915050565b610364816104c2565b82525050565b60006103776024836104b1565b91507f496e73756666696369656e74206e61746976652063757272656e63792062616c60008301527f616e6365000000000000000000000000000000000000000000000000000000006020830152604082019050919050565b60006103dd601a836104b1565b91507f496e73756666696369656e7420746f6b656e2062616c616e63650000000000006000830152602082019050919050565b61041981610500565b82525050565b6000602082019050610434600083018461035b565b92915050565b600060608201905061044f600083018661035b565b61045c602083018561035b565b6104696040830184610410565b949350505050565b6000602082019050818103600083015261048a8161036a565b9050919050565b600060208201905081810360008301526104aa816103d0565b9050919050565b600082825260208201905092915050565b60006104cd826104e0565b9050919050565b60008115159050919050565b600073ffffffffffffffffffffffffffffffffffffffff82169050919050565b6000819050919050565b610513816104c2565b811461051e57600080fd5b50565b61052a816104d4565b811461053557600080fd5b50565b61054181610500565b811461054c57600080fd5b5056fea26469706673582212200fb8373b569c5b019934e96516489fc56cef16711955a5b42a41f8402ede0f0e64736f6c63430008000033",
  "linkReferences": {},
  "deployedLinkReferences": {}
}